{
  "address": "0x179a3bFFcaB9A1c8ce8BDb7e82483dc9252B8573",
  "abi": [
    {
      "inputs": [
        {
          "internalType": "address",
          "name": "vrfCoordinatorV2",
          "type": "address"
        },
        {
          "internalType": "uint64",
          "name": "subscriptionId",
          "type": "uint64"
        },
        {
          "internalType": "bytes32",
          "name": "gasLane",
          "type": "bytes32"
        },
        {
          "internalType": "uint256",
          "name": "mintFee",
          "type": "uint256"
        },
        {
          "internalType": "uint32",
          "name": "callbackGasLimit",
          "type": "uint32"
        },
        {
          "internalType": "string[3]",
          "name": "penguinTokenUris",
          "type": "string[3]"
        }
      ],
      "stateMutability": "nonpayable",
      "type": "constructor"
    },
    {
      "inputs": [
        {
          "internalType": "address",
          "name": "have",
          "type": "address"
        },
        {
          "internalType": "address",
          "name": "want",
          "type": "address"
        }
      ],
      "name": "OnlyCoordinatorCanFulfill",
      "type": "error"
    },
    {
      "inputs": [],
      "name": "PenguinIpfsNft__AlreadyInitialized",
      "type": "error"
    },
    {
      "inputs": [],
      "name": "PenguinIpfsNft__NeedMoreETHSent",
      "type": "error"
    },
    {
      "inputs": [],
      "name": "PenguinIpfsNft__RangeOutOfBounds",
      "type": "error"
    },
    {
      "inputs": [],
      "name": "PenguinIpfsNft__TransferFailed",
      "type": "error"
    },
    {
      "anonymous": false,
      "inputs": [
        {
          "indexed": true,
          "internalType": "address",
          "name": "owner",
          "type": "address"
        },
        {
          "indexed": true,
          "internalType": "address",
          "name": "approved",
          "type": "address"
        },
        {
          "indexed": true,
          "internalType": "uint256",
          "name": "tokenId",
          "type": "uint256"
        }
      ],
      "name": "Approval",
      "type": "event"
    },
    {
      "anonymous": false,
      "inputs": [
        {
          "indexed": true,
          "internalType": "address",
          "name": "owner",
          "type": "address"
        },
        {
          "indexed": true,
          "internalType": "address",
          "name": "operator",
          "type": "address"
        },
        {
          "indexed": false,
          "internalType": "bool",
          "name": "approved",
          "type": "bool"
        }
      ],
      "name": "ApprovalForAll",
      "type": "event"
    },
    {
      "anonymous": false,
      "inputs": [
        {
          "indexed": false,
          "internalType": "enum PenguinIpfsNft.PenguinBreed",
          "name": "breed",
          "type": "uint8"
        },
        {
          "indexed": false,
          "internalType": "address",
          "name": "minter",
          "type": "address"
        }
      ],
      "name": "NftMinted",
      "type": "event"
    },
    {
      "anonymous": false,
      "inputs": [
        {
          "indexed": true,
          "internalType": "uint256",
          "name": "requestId",
          "type": "uint256"
        },
        {
          "indexed": false,
          "internalType": "address",
          "name": "requester",
          "type": "address"
        }
      ],
      "name": "NftRequested",
      "type": "event"
    },
    {
      "anonymous": false,
      "inputs": [
        {
          "indexed": true,
          "internalType": "address",
          "name": "previousOwner",
          "type": "address"
        },
        {
          "indexed": true,
          "internalType": "address",
          "name": "newOwner",
          "type": "address"
        }
      ],
      "name": "OwnershipTransferred",
      "type": "event"
    },
    {
      "anonymous": false,
      "inputs": [
        {
          "indexed": true,
          "internalType": "address",
          "name": "from",
          "type": "address"
        },
        {
          "indexed": true,
          "internalType": "address",
          "name": "to",
          "type": "address"
        },
        {
          "indexed": true,
          "internalType": "uint256",
          "name": "tokenId",
          "type": "uint256"
        }
      ],
      "name": "Transfer",
      "type": "event"
    },
    {
      "inputs": [
        {
          "internalType": "address",
          "name": "to",
          "type": "address"
        },
        {
          "internalType": "uint256",
          "name": "tokenId",
          "type": "uint256"
        }
      ],
      "name": "approve",
      "outputs": [],
      "stateMutability": "nonpayable",
      "type": "function"
    },
    {
      "inputs": [
        {
          "internalType": "address",
          "name": "owner",
          "type": "address"
        }
      ],
      "name": "balanceOf",
      "outputs": [
        {
          "internalType": "uint256",
          "name": "",
          "type": "uint256"
        }
      ],
      "stateMutability": "view",
      "type": "function"
    },
    {
      "inputs": [
        {
          "internalType": "uint256",
          "name": "tokenId",
          "type": "uint256"
        }
      ],
      "name": "getApproved",
      "outputs": [
        {
          "internalType": "address",
          "name": "",
          "type": "address"
        }
      ],
      "stateMutability": "view",
      "type": "function"
    },
    {
      "inputs": [
        {
          "internalType": "uint256",
          "name": "moddedRng",
          "type": "uint256"
        }
      ],
      "name": "getBreedFromModdedRng",
      "outputs": [
        {
          "internalType": "enum PenguinIpfsNft.PenguinBreed",
          "name": "",
          "type": "uint8"
        }
      ],
      "stateMutability": "pure",
      "type": "function"
    },
    {
      "inputs": [],
      "name": "getChanceArray",
      "outputs": [
        {
          "internalType": "uint256[3]",
          "name": "",
          "type": "uint256[3]"
        }
      ],
      "stateMutability": "pure",
      "type": "function"
    },
    {
      "inputs": [],
      "name": "getInitialized",
      "outputs": [
        {
          "internalType": "bool",
          "name": "",
          "type": "bool"
        }
      ],
      "stateMutability": "view",
      "type": "function"
    },
    {
      "inputs": [],
      "name": "getMintFee",
      "outputs": [
        {
          "internalType": "uint256",
          "name": "",
          "type": "uint256"
        }
      ],
      "stateMutability": "view",
      "type": "function"
    },
    {
      "inputs": [
        {
          "internalType": "uint256",
          "name": "index",
          "type": "uint256"
        }
      ],
      "name": "getPenguinTokenUris",
      "outputs": [
        {
          "internalType": "string",
          "name": "",
          "type": "string"
        }
      ],
      "stateMutability": "view",
      "type": "function"
    },
    {
      "inputs": [],
      "name": "getTokenCounter",
      "outputs": [
        {
          "internalType": "uint256",
          "name": "",
          "type": "uint256"
        }
      ],
      "stateMutability": "view",
      "type": "function"
    },
    {
      "inputs": [
        {
          "internalType": "address",
          "name": "owner",
          "type": "address"
        },
        {
          "internalType": "address",
          "name": "operator",
          "type": "address"
        }
      ],
      "name": "isApprovedForAll",
      "outputs": [
        {
          "internalType": "bool",
          "name": "",
          "type": "bool"
        }
      ],
      "stateMutability": "view",
      "type": "function"
    },
    {
      "inputs": [],
      "name": "name",
      "outputs": [
        {
          "internalType": "string",
          "name": "",
          "type": "string"
        }
      ],
      "stateMutability": "view",
      "type": "function"
    },
    {
      "inputs": [],
      "name": "owner",
      "outputs": [
        {
          "internalType": "address",
          "name": "",
          "type": "address"
        }
      ],
      "stateMutability": "view",
      "type": "function"
    },
    {
      "inputs": [
        {
          "internalType": "uint256",
          "name": "tokenId",
          "type": "uint256"
        }
      ],
      "name": "ownerOf",
      "outputs": [
        {
          "internalType": "address",
          "name": "",
          "type": "address"
        }
      ],
      "stateMutability": "view",
      "type": "function"
    },
    {
      "inputs": [
        {
          "internalType": "uint256",
          "name": "requestId",
          "type": "uint256"
        },
        {
          "internalType": "uint256[]",
          "name": "randomWords",
          "type": "uint256[]"
        }
      ],
      "name": "rawFulfillRandomWords",
      "outputs": [],
      "stateMutability": "nonpayable",
      "type": "function"
    },
    {
      "inputs": [],
      "name": "renounceOwnership",
      "outputs": [],
      "stateMutability": "nonpayable",
      "type": "function"
    },
    {
      "inputs": [],
      "name": "requestNft",
      "outputs": [
        {
          "internalType": "uint256",
          "name": "requestId",
          "type": "uint256"
        }
      ],
      "stateMutability": "payable",
      "type": "function"
    },
    {
      "inputs": [
        {
          "internalType": "uint256",
          "name": "",
          "type": "uint256"
        }
      ],
      "name": "s_requestIdToSender",
      "outputs": [
        {
          "internalType": "address",
          "name": "",
          "type": "address"
        }
      ],
      "stateMutability": "view",
      "type": "function"
    },
    {
      "inputs": [
        {
          "internalType": "address",
          "name": "from",
          "type": "address"
        },
        {
          "internalType": "address",
          "name": "to",
          "type": "address"
        },
        {
          "internalType": "uint256",
          "name": "tokenId",
          "type": "uint256"
        }
      ],
      "name": "safeTransferFrom",
      "outputs": [],
      "stateMutability": "nonpayable",
      "type": "function"
    },
    {
      "inputs": [
        {
          "internalType": "address",
          "name": "from",
          "type": "address"
        },
        {
          "internalType": "address",
          "name": "to",
          "type": "address"
        },
        {
          "internalType": "uint256",
          "name": "tokenId",
          "type": "uint256"
        },
        {
          "internalType": "bytes",
          "name": "data",
          "type": "bytes"
        }
      ],
      "name": "safeTransferFrom",
      "outputs": [],
      "stateMutability": "nonpayable",
      "type": "function"
    },
    {
      "inputs": [
        {
          "internalType": "address",
          "name": "operator",
          "type": "address"
        },
        {
          "internalType": "bool",
          "name": "approved",
          "type": "bool"
        }
      ],
      "name": "setApprovalForAll",
      "outputs": [],
      "stateMutability": "nonpayable",
      "type": "function"
    },
    {
      "inputs": [
        {
          "internalType": "bytes4",
          "name": "interfaceId",
          "type": "bytes4"
        }
      ],
      "name": "supportsInterface",
      "outputs": [
        {
          "internalType": "bool",
          "name": "",
          "type": "bool"
        }
      ],
      "stateMutability": "view",
      "type": "function"
    },
    {
      "inputs": [],
      "name": "symbol",
      "outputs": [
        {
          "internalType": "string",
          "name": "",
          "type": "string"
        }
      ],
      "stateMutability": "view",
      "type": "function"
    },
    {
      "inputs": [
        {
          "internalType": "uint256",
          "name": "tokenId",
          "type": "uint256"
        }
      ],
      "name": "tokenURI",
      "outputs": [
        {
          "internalType": "string",
          "name": "",
          "type": "string"
        }
      ],
      "stateMutability": "view",
      "type": "function"
    },
    {
      "inputs": [
        {
          "internalType": "address",
          "name": "from",
          "type": "address"
        },
        {
          "internalType": "address",
          "name": "to",
          "type": "address"
        },
        {
          "internalType": "uint256",
          "name": "tokenId",
          "type": "uint256"
        }
      ],
      "name": "transferFrom",
      "outputs": [],
      "stateMutability": "nonpayable",
      "type": "function"
    },
    {
      "inputs": [
        {
          "internalType": "address",
          "name": "newOwner",
          "type": "address"
        }
      ],
      "name": "transferOwnership",
      "outputs": [],
      "stateMutability": "nonpayable",
      "type": "function"
    },
    {
      "inputs": [],
      "name": "withdraw",
      "outputs": [],
      "stateMutability": "nonpayable",
      "type": "function"
    }
  ],
  "transactionHash": "0x01eacac44dea9abadce39d42fc236fff5a1000946a9417a0066051cdfd8bdaaa",
  "args": [
    "0x2Ca8E0C643bDe4C2E08ab1fA0da3401AdAD7734D",
    "3659",
    "0x79d3d8832d904592c0bf9818b621522c988bb8b0c05cdc3b15aea1b6e8db0c15",
    "10000000000000000",
    "500000",
    [
      "ipfs://QmR4yfZCMKHXTRaE7BQ73fEZFb1Cfbs19AQXxJadFKNojp",
      "ipfs://QmbjdTvxNLS6CazgqCE3bkpkufyiDLTaGUpLzEY6dUpa3U",
      "ipfs://QmYFUXzd7tXsb5U1pDjf8wEABT2GkK3vXnGMaz7PBJm3df"
    ]
  ],
  "numDeployments": 1,
  "solcInputHash": "9edb99a6a4a497957963552d5bd4eb16",
  "bytecode": "0x6101406040523480156200001257600080fd5b5060405162004702380380620047028339818101604052810190620000389190620007c6565b856040518060400160405280600781526020017f50656e6775696e000000000000000000000000000000000000000000000000008152506040518060400160405280600481526020017f50454e47000000000000000000000000000000000000000000000000000000008152508160009081620000b6919062000ac2565b508060019081620000c8919062000ac2565b5050508073ffffffffffffffffffffffffffffffffffffffff1660808173ffffffffffffffffffffffffffffffffffffffff1681525050506200012062000114620001b360201b60201c565b620001bb60201b60201c565b8573ffffffffffffffffffffffffffffffffffffffff1660a08173ffffffffffffffffffffffffffffffffffffffff16815250508467ffffffffffffffff1660c08167ffffffffffffffff16815250508360e081815250508261012081815250508163ffffffff166101008163ffffffff1681525050620001a7816200028160201b60201c565b50505050505062000ba9565b600033905090565b6000600760009054906101000a900473ffffffffffffffffffffffffffffffffffffffff16905081600760006101000a81548173ffffffffffffffffffffffffffffffffffffffff021916908373ffffffffffffffffffffffffffffffffffffffff1602179055508173ffffffffffffffffffffffffffffffffffffffff168173ffffffffffffffffffffffffffffffffffffffff167f8be0079c531659141344cd1fd0a4f28419497f9722a3daafe3b4186f6b6457e060405160405180910390a35050565b600a60009054906101000a900460ff1615620002c9576040517f74c4d99b00000000000000000000000000000000000000000000000000000000815260040160405180910390fd5b806009906003620002dc929190620002fb565b506001600a60006101000a81548160ff02191690831515021790555050565b82805482825590600052602060002090810192821562000348579160200282015b828111156200034757825182908162000336919062000ac2565b50916020019190600101906200031c565b5b5090506200035791906200035b565b5090565b5b808211156200037f576000818162000375919062000383565b506001016200035c565b5090565b5080546200039190620008bb565b6000825580601f10620003a55750620003c6565b601f016020900490600052602060002090810190620003c59190620003c9565b5b50565b5b80821115620003e4576000816000905550600101620003ca565b5090565b6000604051905090565b600080fd5b600080fd5b600073ffffffffffffffffffffffffffffffffffffffff82169050919050565b60006200042982620003fc565b9050919050565b6200043b816200041c565b81146200044757600080fd5b50565b6000815190506200045b8162000430565b92915050565b600067ffffffffffffffff82169050919050565b620004808162000461565b81146200048c57600080fd5b50565b600081519050620004a08162000475565b92915050565b6000819050919050565b620004bb81620004a6565b8114620004c757600080fd5b50565b600081519050620004db81620004b0565b92915050565b6000819050919050565b620004f681620004e1565b81146200050257600080fd5b50565b6000815190506200051681620004eb565b92915050565b600063ffffffff82169050919050565b62000537816200051c565b81146200054357600080fd5b50565b60008151905062000557816200052c565b92915050565b600080fd5b6000601f19601f8301169050919050565b7f4e487b7100000000000000000000000000000000000000000000000000000000600052604160045260246000fd5b620005ad8262000562565b810181811067ffffffffffffffff82111715620005cf57620005ce62000573565b5b80604052505050565b6000620005e4620003e8565b9050620005f28282620005a2565b919050565b600067ffffffffffffffff82111562000615576200061462000573565b5b602082029050919050565b600080fd5b600080fd5b600067ffffffffffffffff82111562000648576200064762000573565b5b620006538262000562565b9050602081019050919050565b60005b838110156200068057808201518184015260208101905062000663565b60008484015250505050565b6000620006a36200069d846200062a565b620005d8565b905082815260208101848484011115620006c257620006c162000625565b5b620006cf84828562000660565b509392505050565b600082601f830112620006ef57620006ee6200055d565b5b8151620007018482602086016200068c565b91505092915050565b6000620007216200071b84620005f7565b620005d8565b905080602084028301858111156200073e576200073d62000620565b5b835b818110156200078c57805167ffffffffffffffff8111156200076757620007666200055d565b5b808601620007768982620006d7565b8552602085019450505060208101905062000740565b5050509392505050565b600082601f830112620007ae57620007ad6200055d565b5b6003620007bd8482856200070a565b91505092915050565b60008060008060008060c08789031215620007e657620007e5620003f2565b5b6000620007f689828a016200044a565b96505060206200080989828a016200048f565b95505060406200081c89828a01620004ca565b94505060606200082f89828a0162000505565b93505060806200084289828a0162000546565b92505060a087015167ffffffffffffffff811115620008665762000865620003f7565b5b6200087489828a0162000796565b9150509295509295509295565b600081519050919050565b7f4e487b7100000000000000000000000000000000000000000000000000000000600052602260045260246000fd5b60006002820490506001821680620008d457607f821691505b602082108103620008ea57620008e96200088c565b5b50919050565b60008190508160005260206000209050919050565b60006020601f8301049050919050565b600082821b905092915050565b600060088302620009547fffffffffffffffffffffffffffffffffffffffffffffffffffffffffffffffff8262000915565b62000960868362000915565b95508019841693508086168417925050509392505050565b6000819050919050565b6000620009a36200099d6200099784620004e1565b62000978565b620004e1565b9050919050565b6000819050919050565b620009bf8362000982565b620009d7620009ce82620009aa565b84845462000922565b825550505050565b600090565b620009ee620009df565b620009fb818484620009b4565b505050565b5b8181101562000a235762000a17600082620009e4565b60018101905062000a01565b5050565b601f82111562000a725762000a3c81620008f0565b62000a478462000905565b8101602085101562000a57578190505b62000a6f62000a668562000905565b83018262000a00565b50505b505050565b600082821c905092915050565b600062000a976000198460080262000a77565b1980831691505092915050565b600062000ab2838362000a84565b9150826002028217905092915050565b62000acd8262000881565b67ffffffffffffffff81111562000ae95762000ae862000573565b5b62000af58254620008bb565b62000b0282828562000a27565b600060209050601f83116001811462000b3a576000841562000b25578287015190505b62000b31858262000aa4565b86555062000ba1565b601f19841662000b4a86620008f0565b60005b8281101562000b745784890151825560018201915060208501945060208101905062000b4d565b8683101562000b94578489015162000b90601f89168262000a84565b8355505b6001600288020188555050505b505050505050565b60805160a05160c05160e0516101005161012051613afb62000c0760003960008181610d6d0152610f660152600061104001526000610ffc0152600061101d01526000610fc00152600081816109c60152610a1a0152613afb6000f3fe6080604052600436106101815760003560e01c8063715018a6116100d1578063a51cccf31161008a578063c87b56dd11610064578063c87b56dd14610575578063e985e9c5146105b2578063ee89dab4146105ef578063f2fde38b1461061a57610181565b8063a51cccf3146104f1578063aa1524911461052e578063b88d4fde1461054c57610181565b8063715018a6146103f35780637a5caab31461040a5780638da5cb5b1461043557806395d89b4114610460578063a22cb4651461048b578063a36f573b146104b457610181565b806323b872dd1161013e5780635dacf5f4116101185780635dacf5f4146103235780636352211e1461034e5780636e02007d1461038b57806370a08231146103b657610181565b806323b872dd146102ba5780633ccfd60b146102e357806342842e0e146102fa57610181565b806301ffc9a71461018657806306fdde03146101c3578063081812fc146101ee578063095ea7b31461022b57806310836e2d146102545780631fe543e314610291575b600080fd5b34801561019257600080fd5b506101ad60048036038101906101a89190612458565b610643565b6040516101ba91906124a0565b60405180910390f35b3480156101cf57600080fd5b506101d8610725565b6040516101e5919061254b565b60405180910390f35b3480156101fa57600080fd5b50610215600480360381019061021091906125a3565b6107b7565b6040516102229190612611565b60405180910390f35b34801561023757600080fd5b50610252600480360381019061024d9190612658565b6107fd565b005b34801561026057600080fd5b5061027b600480360381019061027691906125a3565b610914565b604051610288919061254b565b60405180910390f35b34801561029d57600080fd5b506102b860048036038101906102b391906127e0565b6109c4565b005b3480156102c657600080fd5b506102e160048036038101906102dc919061283c565b610a84565b005b3480156102ef57600080fd5b506102f8610ae4565b005b34801561030657600080fd5b50610321600480360381019061031c919061283c565b610b98565b005b34801561032f57600080fd5b50610338610bb8565b604051610345919061293a565b60405180910390f35b34801561035a57600080fd5b50610375600480360381019061037091906125a3565b610be3565b6040516103829190612611565b60405180910390f35b34801561039757600080fd5b506103a0610c94565b6040516103ad9190612964565b60405180910390f35b3480156103c257600080fd5b506103dd60048036038101906103d8919061297f565b610c9e565b6040516103ea9190612964565b60405180910390f35b3480156103ff57600080fd5b50610408610d55565b005b34801561041657600080fd5b5061041f610d69565b60405161042c9190612964565b60405180910390f35b34801561044157600080fd5b5061044a610d91565b6040516104579190612611565b60405180910390f35b34801561046c57600080fd5b50610475610dbb565b604051610482919061254b565b60405180910390f35b34801561049757600080fd5b506104b260048036038101906104ad91906129d8565b610e4d565b005b3480156104c057600080fd5b506104db60048036038101906104d691906125a3565b610e63565b6040516104e89190612611565b60405180910390f35b3480156104fd57600080fd5b50610518600480360381019061051391906125a3565b610e96565b6040516105259190612a8f565b60405180910390f35b610536610f62565b6040516105439190612964565b60405180910390f35b34801561055857600080fd5b50610573600480360381019061056e9190612b5f565b611153565b005b34801561058157600080fd5b5061059c600480360381019061059791906125a3565b6111b5565b6040516105a9919061254b565b60405180910390f35b3480156105be57600080fd5b506105d960048036038101906105d49190612be2565b6112c7565b6040516105e691906124a0565b60405180910390f35b3480156105fb57600080fd5b5061060461135b565b60405161061191906124a0565b60405180910390f35b34801561062657600080fd5b50610641600480360381019061063c919061297f565b611372565b005b60007f80ac58cd000000000000000000000000000000000000000000000000000000007bffffffffffffffffffffffffffffffffffffffffffffffffffffffff1916827bffffffffffffffffffffffffffffffffffffffffffffffffffffffff1916148061070e57507f5b5e139f000000000000000000000000000000000000000000000000000000007bffffffffffffffffffffffffffffffffffffffffffffffffffffffff1916827bffffffffffffffffffffffffffffffffffffffffffffffffffffffff1916145b8061071e575061071d826113f5565b5b9050919050565b60606000805461073490612c51565b80601f016020809104026020016040519081016040528092919081815260200182805461076090612c51565b80156107ad5780601f10610782576101008083540402835291602001916107ad565b820191906000526020600020905b81548152906001019060200180831161079057829003601f168201915b5050505050905090565b60006107c28261145f565b6004600083815260200190815260200160002060009054906101000a900473ffffffffffffffffffffffffffffffffffffffff169050919050565b600061080882610be3565b90508073ffffffffffffffffffffffffffffffffffffffff168373ffffffffffffffffffffffffffffffffffffffff1603610878576040517f08c379a000000000000000000000000000000000000000000000000000000000815260040161086f90612cf4565b60405180910390fd5b8073ffffffffffffffffffffffffffffffffffffffff166108976114aa565b73ffffffffffffffffffffffffffffffffffffffff1614806108c657506108c5816108c06114aa565b6112c7565b5b610905576040517f08c379a00000000000000000000000000000000000000000000000000000000081526004016108fc90612d86565b60405180910390fd5b61090f83836114b2565b505050565b60606009828154811061092a57610929612da6565b5b90600052602060002001805461093f90612c51565b80601f016020809104026020016040519081016040528092919081815260200182805461096b90612c51565b80156109b85780601f1061098d576101008083540402835291602001916109b8565b820191906000526020600020905b81548152906001019060200180831161099b57829003601f168201915b50505050509050919050565b7f000000000000000000000000000000000000000000000000000000000000000073ffffffffffffffffffffffffffffffffffffffff163373ffffffffffffffffffffffffffffffffffffffff1614610a7657337f00000000000000000000000000000000000000000000000000000000000000006040517f1cf993f4000000000000000000000000000000000000000000000000000000008152600401610a6d929190612dd5565b60405180910390fd5b610a80828261156b565b5050565b610a95610a8f6114aa565b82611705565b610ad4576040517f08c379a0000000000000000000000000000000000000000000000000000000008152600401610acb90612e70565b60405180910390fd5b610adf83838361179a565b505050565b610aec611a00565b600047905060003373ffffffffffffffffffffffffffffffffffffffff1682604051610b1790612ec1565b60006040518083038185875af1925050503d8060008114610b54576040519150601f19603f3d011682016040523d82523d6000602084013e610b59565b606091505b5050905080610b94576040517f9fdf1bca00000000000000000000000000000000000000000000000000000000815260040160405180910390fd5b5050565b610bb383838360405180602001604052806000815250611153565b505050565b610bc06123ca565b6040518060600160405280600a8152602001602881526020016064815250905090565b6000806002600084815260200190815260200160002060009054906101000a900473ffffffffffffffffffffffffffffffffffffffff169050600073ffffffffffffffffffffffffffffffffffffffff168173ffffffffffffffffffffffffffffffffffffffff1603610c8b576040517f08c379a0000000000000000000000000000000000000000000000000000000008152600401610c8290612f22565b60405180910390fd5b80915050919050565b6000600854905090565b60008073ffffffffffffffffffffffffffffffffffffffff168273ffffffffffffffffffffffffffffffffffffffff1603610d0e576040517f08c379a0000000000000000000000000000000000000000000000000000000008152600401610d0590612fb4565b60405180910390fd5b600360008373ffffffffffffffffffffffffffffffffffffffff1673ffffffffffffffffffffffffffffffffffffffff168152602001908152602001600020549050919050565b610d5d611a00565b610d676000611a7e565b565b60007f0000000000000000000000000000000000000000000000000000000000000000905090565b6000600760009054906101000a900473ffffffffffffffffffffffffffffffffffffffff16905090565b606060018054610dca90612c51565b80601f0160208091040260200160405190810160405280929190818152602001828054610df690612c51565b8015610e435780601f10610e1857610100808354040283529160200191610e43565b820191906000526020600020905b815481529060010190602001808311610e2657829003601f168201915b5050505050905090565b610e5f610e586114aa565b8383611b44565b5050565b600b6020528060005260406000206000915054906101000a900473ffffffffffffffffffffffffffffffffffffffff1681565b600080600090506000610ea7610bb8565b905060005b6003811015610f2a57828510158015610edb5750818160038110610ed357610ed2612da6565b5b602002015185105b15610efd57806002811115610ef357610ef2612a18565b5b9350505050610f5d565b818160038110610f1057610f0f612da6565b5b602002015192508080610f2290613003565b915050610eac565b506040517fbfea927800000000000000000000000000000000000000000000000000000000815260040160405180910390fd5b919050565b60007f0000000000000000000000000000000000000000000000000000000000000000341015610fbe576040517f7d08f12400000000000000000000000000000000000000000000000000000000815260040160405180910390fd5b7f000000000000000000000000000000000000000000000000000000000000000073ffffffffffffffffffffffffffffffffffffffff16635d3b1d307f00000000000000000000000000000000000000000000000000000000000000007f000000000000000000000000000000000000000000000000000000000000000060037f000000000000000000000000000000000000000000000000000000000000000060016040518663ffffffff1660e01b81526004016110819594939291906130c3565b6020604051808303816000875af11580156110a0573d6000803e3d6000fd5b505050506040513d601f19601f820116820180604052508101906110c4919061312b565b905033600b600083815260200190815260200160002060006101000a81548173ffffffffffffffffffffffffffffffffffffffff021916908373ffffffffffffffffffffffffffffffffffffffff160217905550807ff873236e6cc0ecc5be1a9a35c95ee5b8d1ac4cc7bfef0cc5060391d6cc98e26b336040516111489190612611565b60405180910390a290565b61116461115e6114aa565b83611705565b6111a3576040517f08c379a000000000000000000000000000000000000000000000000000000000815260040161119a90612e70565b60405180910390fd5b6111af84848484611cb0565b50505050565b60606111c08261145f565b60006006600084815260200190815260200160002080546111e090612c51565b80601f016020809104026020016040519081016040528092919081815260200182805461120c90612c51565b80156112595780601f1061122e57610100808354040283529160200191611259565b820191906000526020600020905b81548152906001019060200180831161123c57829003601f168201915b50505050509050600061126a611d0c565b9050600081510361127f5781925050506112c2565b6000825111156112b457808260405160200161129c929190613194565b604051602081830303815290604052925050506112c2565b6112bd84611d23565b925050505b919050565b6000600560008473ffffffffffffffffffffffffffffffffffffffff1673ffffffffffffffffffffffffffffffffffffffff16815260200190815260200160002060008373ffffffffffffffffffffffffffffffffffffffff1673ffffffffffffffffffffffffffffffffffffffff16815260200190815260200160002060009054906101000a900460ff16905092915050565b6000600a60009054906101000a900460ff16905090565b61137a611a00565b600073ffffffffffffffffffffffffffffffffffffffff168173ffffffffffffffffffffffffffffffffffffffff16036113e9576040517f08c379a00000000000000000000000000000000000000000000000000000000081526004016113e09061322a565b60405180910390fd5b6113f281611a7e565b50565b60007f01ffc9a7000000000000000000000000000000000000000000000000000000007bffffffffffffffffffffffffffffffffffffffffffffffffffffffff1916827bffffffffffffffffffffffffffffffffffffffffffffffffffffffff1916149050919050565b61146881611d8b565b6114a7576040517f08c379a000000000000000000000000000000000000000000000000000000000815260040161149e90612f22565b60405180910390fd5b50565b600033905090565b816004600083815260200190815260200160002060006101000a81548173ffffffffffffffffffffffffffffffffffffffff021916908373ffffffffffffffffffffffffffffffffffffffff160217905550808273ffffffffffffffffffffffffffffffffffffffff1661152583610be3565b73ffffffffffffffffffffffffffffffffffffffff167f8c5be1e5ebec7d5bd14f71427d1e84f3dd0314c0f7b2291e5b200ac8c7c3b92560405160405180910390a45050565b6000600b600084815260200190815260200160002060009054906101000a900473ffffffffffffffffffffffffffffffffffffffff1690506000600854905060016008546115b9919061324a565b60088190555060006064846000815181106115d7576115d6612da6565b5b60200260200101516115e991906132ad565b905060006115f682610e96565b90506116028484611df7565b6116c483600983600281111561161b5761161a612a18565b5b8154811061162c5761162b612da6565b5b90600052602060002001805461164190612c51565b80601f016020809104026020016040519081016040528092919081815260200182805461166d90612c51565b80156116ba5780601f1061168f576101008083540402835291602001916116ba565b820191906000526020600020905b81548152906001019060200180831161169d57829003601f168201915b5050505050611e15565b7f8a269f26b688e110e9cbd887d163dab35cae678fa353a0292de532c0cac1ecdc81856040516116f59291906132de565b60405180910390a1505050505050565b60008061171183610be3565b90508073ffffffffffffffffffffffffffffffffffffffff168473ffffffffffffffffffffffffffffffffffffffff161480611753575061175281856112c7565b5b8061179157508373ffffffffffffffffffffffffffffffffffffffff16611779846107b7565b73ffffffffffffffffffffffffffffffffffffffff16145b91505092915050565b8273ffffffffffffffffffffffffffffffffffffffff166117ba82610be3565b73ffffffffffffffffffffffffffffffffffffffff1614611810576040517f08c379a000000000000000000000000000000000000000000000000000000000815260040161180790613379565b60405180910390fd5b600073ffffffffffffffffffffffffffffffffffffffff168273ffffffffffffffffffffffffffffffffffffffff160361187f576040517f08c379a00000000000000000000000000000000000000000000000000000000081526004016118769061340b565b60405180910390fd5b61188a838383611e82565b6118956000826114b2565b6001600360008573ffffffffffffffffffffffffffffffffffffffff1673ffffffffffffffffffffffffffffffffffffffff16815260200190815260200160002060008282546118e5919061342b565b925050819055506001600360008473ffffffffffffffffffffffffffffffffffffffff1673ffffffffffffffffffffffffffffffffffffffff168152602001908152602001600020600082825461193c919061324a565b92505081905550816002600083815260200190815260200160002060006101000a81548173ffffffffffffffffffffffffffffffffffffffff021916908373ffffffffffffffffffffffffffffffffffffffff160217905550808273ffffffffffffffffffffffffffffffffffffffff168473ffffffffffffffffffffffffffffffffffffffff167fddf252ad1be2c89b69c2b068fc378daa952ba7f163c4a11628f55a4df523b3ef60405160405180910390a46119fb838383611e87565b505050565b611a086114aa565b73ffffffffffffffffffffffffffffffffffffffff16611a26610d91565b73ffffffffffffffffffffffffffffffffffffffff1614611a7c576040517f08c379a0000000000000000000000000000000000000000000000000000000008152600401611a73906134ab565b60405180910390fd5b565b6000600760009054906101000a900473ffffffffffffffffffffffffffffffffffffffff16905081600760006101000a81548173ffffffffffffffffffffffffffffffffffffffff021916908373ffffffffffffffffffffffffffffffffffffffff1602179055508173ffffffffffffffffffffffffffffffffffffffff168173ffffffffffffffffffffffffffffffffffffffff167f8be0079c531659141344cd1fd0a4f28419497f9722a3daafe3b4186f6b6457e060405160405180910390a35050565b8173ffffffffffffffffffffffffffffffffffffffff168373ffffffffffffffffffffffffffffffffffffffff1603611bb2576040517f08c379a0000000000000000000000000000000000000000000000000000000008152600401611ba990613517565b60405180910390fd5b80600560008573ffffffffffffffffffffffffffffffffffffffff1673ffffffffffffffffffffffffffffffffffffffff16815260200190815260200160002060008473ffffffffffffffffffffffffffffffffffffffff1673ffffffffffffffffffffffffffffffffffffffff16815260200190815260200160002060006101000a81548160ff0219169083151502179055508173ffffffffffffffffffffffffffffffffffffffff168373ffffffffffffffffffffffffffffffffffffffff167f17307eab39ab6107e8899845ad3d59bd9653f200f220920489ca2b5937696c3183604051611ca391906124a0565b60405180910390a3505050565b611cbb84848461179a565b611cc784848484611e8c565b611d06576040517f08c379a0000000000000000000000000000000000000000000000000000000008152600401611cfd906135a9565b60405180910390fd5b50505050565b606060405180602001604052806000815250905090565b6060611d2e8261145f565b6000611d38611d0c565b90506000815111611d585760405180602001604052806000815250611d83565b80611d6284612013565b604051602001611d73929190613194565b6040516020818303038152906040525b915050919050565b60008073ffffffffffffffffffffffffffffffffffffffff166002600084815260200190815260200160002060009054906101000a900473ffffffffffffffffffffffffffffffffffffffff1673ffffffffffffffffffffffffffffffffffffffff1614159050919050565b611e11828260405180602001604052806000815250612173565b5050565b611e1e82611d8b565b611e5d576040517f08c379a0000000000000000000000000000000000000000000000000000000008152600401611e549061363b565b60405180910390fd5b80600660008481526020019081526020016000209081611e7d9190613807565b505050565b505050565b505050565b6000611ead8473ffffffffffffffffffffffffffffffffffffffff166121ce565b15612006578373ffffffffffffffffffffffffffffffffffffffff1663150b7a02611ed66114aa565b8786866040518563ffffffff1660e01b8152600401611ef8949392919061392e565b6020604051808303816000875af1925050508015611f3457506040513d601f19601f82011682018060405250810190611f31919061398f565b60015b611fb6573d8060008114611f64576040519150601f19603f3d011682016040523d82523d6000602084013e611f69565b606091505b506000815103611fae576040517f08c379a0000000000000000000000000000000000000000000000000000000008152600401611fa5906135a9565b60405180910390fd5b805181602001fd5b63150b7a0260e01b7bffffffffffffffffffffffffffffffffffffffffffffffffffffffff1916817bffffffffffffffffffffffffffffffffffffffffffffffffffffffff19161491505061200b565b600190505b949350505050565b60606000820361205a576040518060400160405280600181526020017f3000000000000000000000000000000000000000000000000000000000000000815250905061216e565b600082905060005b6000821461208c57808061207590613003565b915050600a8261208591906139bc565b9150612062565b60008167ffffffffffffffff8111156120a8576120a761269d565b5b6040519080825280601f01601f1916602001820160405280156120da5781602001600182028036833780820191505090505b5090505b60008514612167576001826120f3919061342b565b9150600a8561210291906132ad565b603061210e919061324a565b60f81b81838151811061212457612123612da6565b5b60200101907effffffffffffffffffffffffffffffffffffffffffffffffffffffffffffff1916908160001a905350600a8561216091906139bc565b94506120de565b8093505050505b919050565b61217d83836121f1565b61218a6000848484611e8c565b6121c9576040517f08c379a00000000000000000000000000000000000000000000000000000000081526004016121c0906135a9565b60405180910390fd5b505050565b6000808273ffffffffffffffffffffffffffffffffffffffff163b119050919050565b600073ffffffffffffffffffffffffffffffffffffffff168273ffffffffffffffffffffffffffffffffffffffff1603612260576040517f08c379a000000000000000000000000000000000000000000000000000000000815260040161225790613a39565b60405180910390fd5b61226981611d8b565b156122a9576040517f08c379a00000000000000000000000000000000000000000000000000000000081526004016122a090613aa5565b60405180910390fd5b6122b560008383611e82565b6001600360008473ffffffffffffffffffffffffffffffffffffffff1673ffffffffffffffffffffffffffffffffffffffff1681526020019081526020016000206000828254612305919061324a565b92505081905550816002600083815260200190815260200160002060006101000a81548173ffffffffffffffffffffffffffffffffffffffff021916908373ffffffffffffffffffffffffffffffffffffffff160217905550808273ffffffffffffffffffffffffffffffffffffffff16600073ffffffffffffffffffffffffffffffffffffffff167fddf252ad1be2c89b69c2b068fc378daa952ba7f163c4a11628f55a4df523b3ef60405160405180910390a46123c660008383611e87565b5050565b6040518060600160405280600390602082028036833780820191505090505090565b6000604051905090565b600080fd5b600080fd5b60007fffffffff0000000000000000000000000000000000000000000000000000000082169050919050565b61243581612400565b811461244057600080fd5b50565b6000813590506124528161242c565b92915050565b60006020828403121561246e5761246d6123f6565b5b600061247c84828501612443565b91505092915050565b60008115159050919050565b61249a81612485565b82525050565b60006020820190506124b56000830184612491565b92915050565b600081519050919050565b600082825260208201905092915050565b60005b838110156124f55780820151818401526020810190506124da565b60008484015250505050565b6000601f19601f8301169050919050565b600061251d826124bb565b61252781856124c6565b93506125378185602086016124d7565b61254081612501565b840191505092915050565b600060208201905081810360008301526125658184612512565b905092915050565b6000819050919050565b6125808161256d565b811461258b57600080fd5b50565b60008135905061259d81612577565b92915050565b6000602082840312156125b9576125b86123f6565b5b60006125c78482850161258e565b91505092915050565b600073ffffffffffffffffffffffffffffffffffffffff82169050919050565b60006125fb826125d0565b9050919050565b61260b816125f0565b82525050565b60006020820190506126266000830184612602565b92915050565b612635816125f0565b811461264057600080fd5b50565b6000813590506126528161262c565b92915050565b6000806040838503121561266f5761266e6123f6565b5b600061267d85828601612643565b925050602061268e8582860161258e565b9150509250929050565b600080fd5b7f4e487b7100000000000000000000000000000000000000000000000000000000600052604160045260246000fd5b6126d582612501565b810181811067ffffffffffffffff821117156126f4576126f361269d565b5b80604052505050565b60006127076123ec565b905061271382826126cc565b919050565b600067ffffffffffffffff8211156127335761273261269d565b5b602082029050602081019050919050565b600080fd5b600061275c61275784612718565b6126fd565b9050808382526020820190506020840283018581111561277f5761277e612744565b5b835b818110156127a85780612794888261258e565b845260208401935050602081019050612781565b5050509392505050565b600082601f8301126127c7576127c6612698565b5b81356127d7848260208601612749565b91505092915050565b600080604083850312156127f7576127f66123f6565b5b60006128058582860161258e565b925050602083013567ffffffffffffffff811115612826576128256123fb565b5b612832858286016127b2565b9150509250929050565b600080600060608486031215612855576128546123f6565b5b600061286386828701612643565b935050602061287486828701612643565b92505060406128858682870161258e565b9150509250925092565b600060039050919050565b600081905092915050565b6000819050919050565b6128b88161256d565b82525050565b60006128ca83836128af565b60208301905092915050565b6000602082019050919050565b6128ec8161288f565b6128f6818461289a565b9250612901826128a5565b8060005b8381101561293257815161291987826128be565b9650612924836128d6565b925050600181019050612905565b505050505050565b600060608201905061294f60008301846128e3565b92915050565b61295e8161256d565b82525050565b60006020820190506129796000830184612955565b92915050565b600060208284031215612995576129946123f6565b5b60006129a384828501612643565b91505092915050565b6129b581612485565b81146129c057600080fd5b50565b6000813590506129d2816129ac565b92915050565b600080604083850312156129ef576129ee6123f6565b5b60006129fd85828601612643565b9250506020612a0e858286016129c3565b9150509250929050565b7f4e487b7100000000000000000000000000000000000000000000000000000000600052602160045260246000fd5b60038110612a5857612a57612a18565b5b50565b6000819050612a6982612a47565b919050565b6000612a7982612a5b565b9050919050565b612a8981612a6e565b82525050565b6000602082019050612aa46000830184612a80565b92915050565b600080fd5b600067ffffffffffffffff821115612aca57612ac961269d565b5b612ad382612501565b9050602081019050919050565b82818337600083830152505050565b6000612b02612afd84612aaf565b6126fd565b905082815260208101848484011115612b1e57612b1d612aaa565b5b612b29848285612ae0565b509392505050565b600082601f830112612b4657612b45612698565b5b8135612b56848260208601612aef565b91505092915050565b60008060008060808587031215612b7957612b786123f6565b5b6000612b8787828801612643565b9450506020612b9887828801612643565b9350506040612ba98782880161258e565b925050606085013567ffffffffffffffff811115612bca57612bc96123fb565b5b612bd687828801612b31565b91505092959194509250565b60008060408385031215612bf957612bf86123f6565b5b6000612c0785828601612643565b9250506020612c1885828601612643565b9150509250929050565b7f4e487b7100000000000000000000000000000000000000000000000000000000600052602260045260246000fd5b60006002820490506001821680612c6957607f821691505b602082108103612c7c57612c7b612c22565b5b50919050565b7f4552433732313a20617070726f76616c20746f2063757272656e74206f776e6560008201527f7200000000000000000000000000000000000000000000000000000000000000602082015250565b6000612cde6021836124c6565b9150612ce982612c82565b604082019050919050565b60006020820190508181036000830152612d0d81612cd1565b9050919050565b7f4552433732313a20617070726f76652063616c6c6572206973206e6f7420746f60008201527f6b656e206f776e6572206e6f7220617070726f76656420666f7220616c6c0000602082015250565b6000612d70603e836124c6565b9150612d7b82612d14565b604082019050919050565b60006020820190508181036000830152612d9f81612d63565b9050919050565b7f4e487b7100000000000000000000000000000000000000000000000000000000600052603260045260246000fd5b6000604082019050612dea6000830185612602565b612df76020830184612602565b9392505050565b7f4552433732313a2063616c6c6572206973206e6f7420746f6b656e206f776e6560008201527f72206e6f7220617070726f766564000000000000000000000000000000000000602082015250565b6000612e5a602e836124c6565b9150612e6582612dfe565b604082019050919050565b60006020820190508181036000830152612e8981612e4d565b9050919050565b600081905092915050565b50565b6000612eab600083612e90565b9150612eb682612e9b565b600082019050919050565b6000612ecc82612e9e565b9150819050919050565b7f4552433732313a20696e76616c696420746f6b656e2049440000000000000000600082015250565b6000612f0c6018836124c6565b9150612f1782612ed6565b602082019050919050565b60006020820190508181036000830152612f3b81612eff565b9050919050565b7f4552433732313a2061646472657373207a65726f206973206e6f74206120766160008201527f6c6964206f776e65720000000000000000000000000000000000000000000000602082015250565b6000612f9e6029836124c6565b9150612fa982612f42565b604082019050919050565b60006020820190508181036000830152612fcd81612f91565b9050919050565b7f4e487b7100000000000000000000000000000000000000000000000000000000600052601160045260246000fd5b600061300e8261256d565b91507fffffffffffffffffffffffffffffffffffffffffffffffffffffffffffffffff82036130405761303f612fd4565b5b600182019050919050565b6000819050919050565b61305e8161304b565b82525050565b600067ffffffffffffffff82169050919050565b61308181613064565b82525050565b600061ffff82169050919050565b61309e81613087565b82525050565b600063ffffffff82169050919050565b6130bd816130a4565b82525050565b600060a0820190506130d86000830188613055565b6130e56020830187613078565b6130f26040830186613095565b6130ff60608301856130b4565b61310c60808301846130b4565b9695505050505050565b60008151905061312581612577565b92915050565b600060208284031215613141576131406123f6565b5b600061314f84828501613116565b91505092915050565b600081905092915050565b600061316e826124bb565b6131788185613158565b93506131888185602086016124d7565b80840191505092915050565b60006131a08285613163565b91506131ac8284613163565b91508190509392505050565b7f4f776e61626c653a206e6577206f776e657220697320746865207a65726f206160008201527f6464726573730000000000000000000000000000000000000000000000000000602082015250565b60006132146026836124c6565b915061321f826131b8565b604082019050919050565b6000602082019050818103600083015261324381613207565b9050919050565b60006132558261256d565b91506132608361256d565b925082820190508082111561327857613277612fd4565b5b92915050565b7f4e487b7100000000000000000000000000000000000000000000000000000000600052601260045260246000fd5b60006132b88261256d565b91506132c38361256d565b9250826132d3576132d261327e565b5b828206905092915050565b60006040820190506132f36000830185612a80565b6133006020830184612602565b9392505050565b7f4552433732313a207472616e736665722066726f6d20696e636f72726563742060008201527f6f776e6572000000000000000000000000000000000000000000000000000000602082015250565b60006133636025836124c6565b915061336e82613307565b604082019050919050565b6000602082019050818103600083015261339281613356565b9050919050565b7f4552433732313a207472616e7366657220746f20746865207a65726f2061646460008201527f7265737300000000000000000000000000000000000000000000000000000000602082015250565b60006133f56024836124c6565b915061340082613399565b604082019050919050565b60006020820190508181036000830152613424816133e8565b9050919050565b60006134368261256d565b91506134418361256d565b925082820390508181111561345957613458612fd4565b5b92915050565b7f4f776e61626c653a2063616c6c6572206973206e6f7420746865206f776e6572600082015250565b60006134956020836124c6565b91506134a08261345f565b602082019050919050565b600060208201905081810360008301526134c481613488565b9050919050565b7f4552433732313a20617070726f766520746f2063616c6c657200000000000000600082015250565b60006135016019836124c6565b915061350c826134cb565b602082019050919050565b60006020820190508181036000830152613530816134f4565b9050919050565b7f4552433732313a207472616e7366657220746f206e6f6e20455243373231526560008201527f63656976657220696d706c656d656e7465720000000000000000000000000000602082015250565b60006135936032836124c6565b915061359e82613537565b604082019050919050565b600060208201905081810360008301526135c281613586565b9050919050565b7f45524337323155524953746f726167653a2055524920736574206f66206e6f6e60008201527f6578697374656e7420746f6b656e000000000000000000000000000000000000602082015250565b6000613625602e836124c6565b9150613630826135c9565b604082019050919050565b6000602082019050818103600083015261365481613618565b9050919050565b60008190508160005260206000209050919050565b60006020601f8301049050919050565b600082821b905092915050565b6000600883026136bd7fffffffffffffffffffffffffffffffffffffffffffffffffffffffffffffffff82613680565b6136c78683613680565b95508019841693508086168417925050509392505050565b6000819050919050565b60006137046136ff6136fa8461256d565b6136df565b61256d565b9050919050565b6000819050919050565b61371e836136e9565b61373261372a8261370b565b84845461368d565b825550505050565b600090565b61374761373a565b613752818484613715565b505050565b5b818110156137765761376b60008261373f565b600181019050613758565b5050565b601f8211156137bb5761378c8161365b565b61379584613670565b810160208510156137a4578190505b6137b86137b085613670565b830182613757565b50505b505050565b600082821c905092915050565b60006137de600019846008026137c0565b1980831691505092915050565b60006137f783836137cd565b9150826002028217905092915050565b613810826124bb565b67ffffffffffffffff8111156138295761382861269d565b5b6138338254612c51565b61383e82828561377a565b600060209050601f831160018114613871576000841561385f578287015190505b61386985826137eb565b8655506138d1565b601f19841661387f8661365b565b60005b828110156138a757848901518255600182019150602085019450602081019050613882565b868310156138c457848901516138c0601f8916826137cd565b8355505b6001600288020188555050505b505050505050565b600081519050919050565b600082825260208201905092915050565b6000613900826138d9565b61390a81856138e4565b935061391a8185602086016124d7565b61392381612501565b840191505092915050565b60006080820190506139436000830187612602565b6139506020830186612602565b61395d6040830185612955565b818103606083015261396f81846138f5565b905095945050505050565b6000815190506139898161242c565b92915050565b6000602082840312156139a5576139a46123f6565b5b60006139b38482850161397a565b91505092915050565b60006139c78261256d565b91506139d28361256d565b9250826139e2576139e161327e565b5b828204905092915050565b7f4552433732313a206d696e7420746f20746865207a65726f2061646472657373600082015250565b6000613a236020836124c6565b9150613a2e826139ed565b602082019050919050565b60006020820190508181036000830152613a5281613a16565b9050919050565b7f4552433732313a20746f6b656e20616c7265616479206d696e74656400000000600082015250565b6000613a8f601c836124c6565b9150613a9a82613a59565b602082019050919050565b60006020820190508181036000830152613abe81613a82565b905091905056fea2646970667358221220208485aa04622eebcd5734b707d643c77a3bc7327b43edabf4520cbb17f2132264736f6c63430008110033",
  "devdoc": {
    "kind": "dev",
    "methods": {
      "approve(address,uint256)": {
        "details": "See {IERC721-approve}."
      },
      "balanceOf(address)": {
        "details": "See {IERC721-balanceOf}."
      },
      "getApproved(uint256)": {
        "details": "See {IERC721-getApproved}."
      },
      "isApprovedForAll(address,address)": {
        "details": "See {IERC721-isApprovedForAll}."
      },
      "name()": {
        "details": "See {IERC721Metadata-name}."
      },
      "owner()": {
        "details": "Returns the address of the current owner."
      },
      "ownerOf(uint256)": {
        "details": "See {IERC721-ownerOf}."
      },
      "renounceOwnership()": {
        "details": "Leaves the contract without owner. It will not be possible to call `onlyOwner` functions anymore. Can only be called by the current owner. NOTE: Renouncing ownership will leave the contract without an owner, thereby removing any functionality that is only available to the owner."
      },
      "safeTransferFrom(address,address,uint256)": {
        "details": "See {IERC721-safeTransferFrom}."
      },
      "safeTransferFrom(address,address,uint256,bytes)": {
        "details": "See {IERC721-safeTransferFrom}."
      },
      "setApprovalForAll(address,bool)": {
        "details": "See {IERC721-setApprovalForAll}."
      },
      "supportsInterface(bytes4)": {
        "details": "See {IERC165-supportsInterface}."
      },
      "symbol()": {
        "details": "See {IERC721Metadata-symbol}."
      },
      "tokenURI(uint256)": {
        "details": "See {IERC721Metadata-tokenURI}."
      },
      "transferFrom(address,address,uint256)": {
        "details": "See {IERC721-transferFrom}."
      },
      "transferOwnership(address)": {
        "details": "Transfers ownership of the contract to a new account (`newOwner`). Can only be called by the current owner."
      }
    },
    "version": 1
  },
  "userdoc": {
    "kind": "user",
    "methods": {},
    "version": 1
  },
  "storageLayout": {
    "storage": [
      {
        "astId": 292,
        "contract": "contracts/PenguinIpfsNft.sol:PenguinIpfsNft",
        "label": "_name",
        "offset": 0,
        "slot": "0",
        "type": "t_string_storage"
      },
      {
        "astId": 294,
        "contract": "contracts/PenguinIpfsNft.sol:PenguinIpfsNft",
        "label": "_symbol",
        "offset": 0,
        "slot": "1",
        "type": "t_string_storage"
      },
      {
        "astId": 298,
        "contract": "contracts/PenguinIpfsNft.sol:PenguinIpfsNft",
        "label": "_owners",
        "offset": 0,
        "slot": "2",
        "type": "t_mapping(t_uint256,t_address)"
      },
      {
        "astId": 302,
        "contract": "contracts/PenguinIpfsNft.sol:PenguinIpfsNft",
        "label": "_balances",
        "offset": 0,
        "slot": "3",
        "type": "t_mapping(t_address,t_uint256)"
      },
      {
        "astId": 306,
        "contract": "contracts/PenguinIpfsNft.sol:PenguinIpfsNft",
        "label": "_tokenApprovals",
        "offset": 0,
        "slot": "4",
        "type": "t_mapping(t_uint256,t_address)"
      },
      {
        "astId": 312,
        "contract": "contracts/PenguinIpfsNft.sol:PenguinIpfsNft",
        "label": "_operatorApprovals",
        "offset": 0,
        "slot": "5",
        "type": "t_mapping(t_address,t_mapping(t_address,t_bool))"
      },
      {
        "astId": 1280,
        "contract": "contracts/PenguinIpfsNft.sol:PenguinIpfsNft",
        "label": "_tokenURIs",
        "offset": 0,
        "slot": "6",
        "type": "t_mapping(t_uint256,t_string_storage)"
      },
      {
        "astId": 161,
        "contract": "contracts/PenguinIpfsNft.sol:PenguinIpfsNft",
        "label": "_owner",
        "offset": 0,
        "slot": "7",
        "type": "t_address"
      },
      {
        "astId": 2100,
        "contract": "contracts/PenguinIpfsNft.sol:PenguinIpfsNft",
        "label": "s_tokenCounter",
        "offset": 0,
        "slot": "8",
        "type": "t_uint256"
      },
      {
        "astId": 2106,
        "contract": "contracts/PenguinIpfsNft.sol:PenguinIpfsNft",
        "label": "s_penguinTokenUris",
        "offset": 0,
        "slot": "9",
        "type": "t_array(t_string_storage)dyn_storage"
      },
      {
        "astId": 2108,
        "contract": "contracts/PenguinIpfsNft.sol:PenguinIpfsNft",
        "label": "s_initialized",
        "offset": 0,
        "slot": "10",
        "type": "t_bool"
      },
      {
        "astId": 2112,
        "contract": "contracts/PenguinIpfsNft.sol:PenguinIpfsNft",
        "label": "s_requestIdToSender",
        "offset": 0,
        "slot": "11",
        "type": "t_mapping(t_uint256,t_address)"
      }
    ],
    "types": {
      "t_address": {
        "encoding": "inplace",
        "label": "address",
        "numberOfBytes": "20"
      },
      "t_array(t_string_storage)dyn_storage": {
        "base": "t_string_storage",
        "encoding": "dynamic_array",
        "label": "string[]",
        "numberOfBytes": "32"
      },
      "t_bool": {
        "encoding": "inplace",
        "label": "bool",
        "numberOfBytes": "1"
      },
      "t_mapping(t_address,t_bool)": {
        "encoding": "mapping",
        "key": "t_address",
        "label": "mapping(address => bool)",
        "numberOfBytes": "32",
        "value": "t_bool"
      },
      "t_mapping(t_address,t_mapping(t_address,t_bool))": {
        "encoding": "mapping",
        "key": "t_address",
        "label": "mapping(address => mapping(address => bool))",
        "numberOfBytes": "32",
        "value": "t_mapping(t_address,t_bool)"
      },
      "t_mapping(t_address,t_uint256)": {
        "encoding": "mapping",
        "key": "t_address",
        "label": "mapping(address => uint256)",
        "numberOfBytes": "32",
        "value": "t_uint256"
      },
      "t_mapping(t_uint256,t_address)": {
        "encoding": "mapping",
        "key": "t_uint256",
        "label": "mapping(uint256 => address)",
        "numberOfBytes": "32",
        "value": "t_address"
      },
      "t_mapping(t_uint256,t_string_storage)": {
        "encoding": "mapping",
        "key": "t_uint256",
        "label": "mapping(uint256 => string)",
        "numberOfBytes": "32",
        "value": "t_string_storage"
      },
      "t_string_storage": {
        "encoding": "bytes",
        "label": "string",
        "numberOfBytes": "32"
      },
      "t_uint256": {
        "encoding": "inplace",
        "label": "uint256",
        "numberOfBytes": "32"
      }
    }
  }
}